S01700004763634170706C69636174696F6E312E737265635B
S11300000C9434000C9451000C9451000C94510045
S11300100C9451000C9418010C9451000C94510050
S11300200C9451000C9451000C94BB000C949F0050
S11300300C9451000C9488000C9476000C9451009C
S11300400C9451000C9451000C9451000C945100E8
S11300500C9451000C9451000C9451000C945100D8
S11300600C9451000C94510011241FBECFEFD8E022
S1130070DEBFCDBF11E0A0E0B1E0EAECFBE002C0DE
S113008005900D92A232B107D9F721E0A2E2B1E0C6
S113009001C01D92A533B207E1F70E9449010C94F7
S11300A0E3050C9400001092C50087E68093C40019
S11300B088E18093C1008EE08093C2000895E0EC53
S11300C0F0E0908195FFFDCF8093C6000895CF9313
S11300D0DF93EC018881882331F021960E945F0030
S11300E089918111FBCFDF91CF9108951F920F92D7
S11300F00FB60F9211248F939F939BB180E48927AD
S11301008BB99F918F910F900FBE0F901F901895F0
S11301101F920F920FB60F9211248F939F93809189
S1130120290190912A01019690932A018093290133
S11301309F918F910F900FBE0F901F9018951F9253
S11301400F920FB60F9211248F93EF93FF93299878
S11301502198E1E8F0E0808180648083EFE6F0E0BC
S113016080818D7F8083FF91EF918F910F900FBEDF
S11301700F901F9018951F920F920FB60F92112493
S11301802F933F934F935F938F939F93EF93FF939B
S11301908091810086FF12C0809186009091870033
S11301A0909328018093270110922A01109229012B
S11301B0E1E8F0E080818F7B80832DC08091860010
S11301C090918700909326018093250180912501C9
S11301D0909126014091290150912A0120912701F3
S11301E030912801841B950B821B930B909324015F
S11301F080932301EFE6F0E0808182608083219A7E
S1130200299A809184009091850080569F4F909305
S1130210890080938800FF91EF919F918F915F9166
S11302204F913F912F910F900FBE0F901F901895F3
S11302301F920F920FB60F9211248F938091220177
S11302408F5F809322018091220183708093220129
S11302508F910F900FBE0F901F90189580E480939C
S11302607C0087E880937A000895ECE7F0E09081C1
S1130270987F8770892B8083EAE7F0E0808180642F
S11302808083808186FDFDCF8091780090917900F4
S113029008950E9453000E942E011AB8569A84B5FC
S11302A0826084BD85B5836085BDEEE6F0E0808123
S11302B082608083A99A5F9AE8E6F0E08081846096
S11302C08083DA9AEDE6F0E080818068808314B858
S11302D0219A84B18C6184B910928000E1E8F0E045
S11302E01082808181648083EFE6F0E08081836204
S11302F0808386B3836286BB7894299A8091840034
S11303009091850080569F4F909389008093880038
S1130310992493946894882481F80F2EF3E02F2E67
S1130320F02D6894CC24C2F8D5E00F2EF7E0DF2E30
S1130330F02D6894AA24A4F86894BB24B3F80F2E73
S1130340FCE33F2EF02D0F2EF4EF4F2E5524539443
S1130350612C712CF02D0F2EF0E0EF2EF1E0FF2E2A
S1130360F02D80E00E943501803222E0920700F1F6
S11303709C01205232402D323105E0F02D523109DA
S11303802C323105C8F02C5231092D323105B0F030
S11303902D5231092C32310598F02C5231092D326D
S11303A0310580F08F5F92408C9770F0CD2D0DC099
S11303B0C0E00BC0C92D09C0C82D07C0C22D05C09F
S11303C0CC2D03C0CD2F01C0C6E02C2F22704C2FA2
S11303D0417085B16C2F647070E0807190E09595E8
S11303E08795959587956817790719F085B18A25BA
S11303F085B985B130E0887090E09595879595959D
S113040087952817390719F085B18B2585B985B1EA
S113041050E082FB002700F910E04017510719F063
S113042085B18C2585B980912201882399F060914A
S1130430230170912401CB01A0E0B0E0BC01CD0107
S1130440605A75418F4F9F4FA30192010E94B802D9
S113045027BD71C08091230190912401873E9B4167
S113046018F487E787BD67C0809123019091240128
S1130470873E9B4150F08091230190912401863561
S11304809B4418F48AE687BD56C08091230190915D
S1130490240186359B4450F08091230190912401DE
S11304A08D33974618F48FE587BD45C080912301AD
S11304B0909124018D33974650F0809123019091BF
S11304C024018332934818F489E587BD34C08091B0
S11304D02301909124018332934850F080912301A9
S11304E0909124018A309F4918F480E587BD23C088
S11304F080912301909124018A309F4950F080918A
S1130500230190912401813F9A4B18F487E487BD1D
S113051012C08091230190912401813F9A4B50F0A5
S11305208091230190912401883D964D18F48FE326
S113053087BD01C037BC80912301909124019F9312
S11305408F931F92CF93FF92EF928BE291E09F9350
S11305508F930E94F9028BE291E00E9467008DB7AD
S11305609EB708960FB6F8949EBF0FBE8DBFF9CE06
S1130570052E97FB1EF400940E94CF0257FD07D06E
S11305800E94D70207FC03D04EF40C94CF0250957E
S11305904095309521953F4F4F4F5F4F089590956B
S11305A08095709561957F4F8F4F9F4F0895A1E27D
S11305B01A2EAA1BBB1BFD010DC0AA1FBB1FEE1FD9
S11305C0FF1FA217B307E407F50720F0A21BB30B24
S11305D0E40BF50B661F771F881F991F1A9469F7A0
S11305E060957095809590959B01AC01BD01CF01FC
S11305F00895AEE0B0E0EFEFF2E00C94BA050D8997
S11306001E8986E08C831A8309838FEF9FE79E837C
S11306108D83AE01475E5F4F6F89788DCE01019661
S11306200E941B03EF81F885E00FF11F10822E96C4
S1130630E4E00C94D605ABE0B0E0E1E2F3E00C9426
S1130640AC056C017B018A01FC011782168283814F
S113065081FFCCC1CE0101963C01F6019381F701E3
S113066093FD859193FF81917F01882309F4BAC199
S1130670853239F493FD859193FF81917F01853211
S113068029F4B60190E00E941205E7CF912C212CA9
S1130690312CFFE1F315D8F08B3279F038F4803245
S11306A079F08332A1F4232D20611DC08D3261F0D5
S11306B0803369F4232D216016C0832D8260382E87
S11306C0E32DE4603E2E2AC0F32DF8601DC037FCF4
S11306D02DC020ED280F2A3040F08E32B9F436FCBC
S11306E081C1232D2064322E19C036FE06C08AE053
S11306F0989E200D1124922E11C0EAE02E9E200D0A
S11307001124222EF32DF0623F2E08C08C3621F4E2
S1130710832D8068382E02C0883641F4F70193FD9A
S1130720859193FF81917F018111B3CF982F9F7D94
S11307309554933028F40C5F1F4F9FE399830DC0A9
S1130740833631F0833771F0833509F059C021C005
S1130750F801808189830E5F1F4F88248394912C34
S1130760530113C02801F2E04F0E511CF801A08080
S1130770B18036FE03C0692D70E002C06FEF7FEFD9
S1130780C5010E9407054C018201F32DFF773F2E1E
S113079016C0280122E0420E511CF801A080B1804D
S11307A036FE03C0692D70E002C06FEF7FEFC50114
S11307B00E94FC044C01F32DF0683F2E820133FCAF
S11307C01BC0822D90E088169906B0F4B60180E231
S11307D090E00E9412052A94F4CFF50137FC85912C
S11307E037FE81915F01B60190E00E94120521104D
S11307F02A9421E0821A91088114910471F7E8C0C7
S1130800843611F0893641F5F80137FE07C060815E
S11308107181828193810C5F1F4F08C06081718157
S1130820072E000C880B990B0E5F1F4FF32DFF76DC
S11308303F2E97FF09C090958095709561957F4FE5
S11308408F4F9F4FF0683F2E2AE030E0A3010E94B3
S11308504E05882E861845C0853731F4232D2F7E0A
S1130860B22E2AE030E025C0932D997FB92E8F3621
S1130870C1F018F4883579F0B5C0803719F088379D
S113088021F0B0C0E92FE061BE2EB4FE0DC0FB2DF7
S1130890F460BF2E09C034FE0AC0292F2660B22E90
S11308A006C028E030E005C020E130E002C020E1CD
S11308B032E0F801B7FE07C06081718182819381C3
S11308C00C5F1F4F06C06081718180E090E00E5F75
S11308D01F4FA3010E944E05882E8618FB2DFF771B
S11308E03F2E36FE0DC0232D2E7FA22E891458F4E0
S11308F034FE0BC032FC09C0832D8E7EA82E05C0A9
S1130900B82CA32C03C0B82C01C0B92CA4FE0FC072
S1130910FE01E80DF11D8081803321F49A2D997E2A
S1130920A92E09C0A2FE06C0B394B39404C08A2DB4
S1130930867809F0B394A3FC11C0A0FE06C0B214DB
S113094088F4280C922C9B180EC0B21460F4B601E3
S113095080E290E00E941205B394F7CFB21418F429
S11309602B1802C0982C212CA4FE10C0B60180E3E1
S113097090E00E941205A2FE17C0A1FC03C088E704
S113098090E002C088E590E0B6010CC08A2D86781C
S113099059F0A1FE02C08BE201C080E2A7FC8DE207
S11309A0B60190E00E941205891438F4B60180E380
S11309B090E00E9412059A94F7CF8A94F301E80D0F
S11309C0F11D8081B60190E00E9412058110F5CFDF
S11309D0222009F442CEB60180E290E00E94120582
S11309E02A94F6CFF6018681978102C08FEF9FEF9C
S11309F02B96E2E10C94C805FC010590615070400F
S1130A000110D8F7809590958E0F9F1F0895FC01D3
S1130A106150704001900110D8F7809590958E0F29
S1130A209F1F08950F931F93CF93DF93FB0123819F
S1130A3021FD03C08FEF9FEF2CC022FF16C046811B
S1130A405781248135814217530744F4A081B18131
S1130A509D012F5F3F4F318320838C932681378103
S1130A602F5F3F4F3783268314C08B01EC01FB01BA
S1130A700084F185E02D0995892BE1F6D8011696BD
S1130A808D919C911797019617969C938E93169728
S1130A90CE01DF91CF911F910F910895FA01AA27FA
S1130AA0283051F1203181F1E8946F936E7F6E5FAD
S1130AB07F4F8F4F9F4FAF4FB1E03ED0B4E03CD05B
S1130AC0670F781F891F9A1FA11D680F791F8A1F3E
S1130AD0911DA11D6A0F711D811D911DA11D20D0A5
S1130AE009F468943F912AE0269F11243019305D5F
S1130AF03193DEF6CF010895462F4770405D419350
S1130B00B3E00FD0C9F7F6CF462F4F70405D4A339C
S1130B1018F0495D31FD4052419302D0A9F7EACF64
S1130B20B4E0A6959795879577956795BA95C9F793
S1130B3000976105710508959B01AC010A2E069486
S1130B405795479537952795BA95C9F7620F731F3F
S1130B50841F951FA01D08952F923F924F925F927C
S1130B606F927F928F929F92AF92BF92CF92DF92B9
S1130B70EF92FF920F931F93CF93DF93CDB7DEB71E
S1130B80CA1BDB0B0FB6F894DEBF0FBECDBF0994B2
S1130B902A88398848885F846E847D848C849B8409
S1130BA0AA84B984C884DF80EE80FD800C811B8117
S1130BB0AA81B981CE0FD11D0FB6F894DEBF0FBE46
S10D0BC0CDBFED010895F894FFCFB6
S1130BCA4C69676874206C6576656C3A20257520D3
S1130BDA50756C73652077696474683A20257520AA
S1050BEA0A00FB
S9030127D4
